:0410000043EF08F0C2
:101008005582FACF47F0FBCF48F0E9CF49F0EACF55
:101018004AF0E1CF4BF0E2CF4CF0D9CF4DF0DACF28
:101028004EF0F3CF4FF0F4CF50F0F6CF51F0F7CFAA
:1010380052F0F8CF53F0F5CF54F004EC10F0FCEC7C
:1010480017F054C0F5FF53C0F8FF52C0F7FF51C066
:10105800F6FF50C0F4FF4FC0F3FF4EC0DAFF4DC09B
:10106800D9FF4CC0E2FF4BC0E1FF4AC0EAFF49C0CC
:10107800E9FF48C0FBFF47C0FAFF55921100C2EFD5
:0210880019F05D
:1011000000C6114C118011091109024300020100AF
:10111000C032090400000102020100052400100190
:10112000042402020524060001052401000107052C
:10113000810308000209040100020A0000000705FB
:1011400002024000000705820240000034034D0007
:101150006900630072006F0063006800690070003E
:10116000200054006500630068006E006F006C0092
:101170006F0067007900200049006E0063002E00B8
:1011800034034300440043002000520053002D006C
:10119000320033003200200045006D0075006C0005
:1011A0006100740069006F006E002000440065005B
:1011B0006D006F001201000202000008D8040A004E
:1011C00000010102000104030904000002013205CC
:1011D000D8A410D0020130511F0B0009D8A40AD0A6
:1011E0000C8E030E02013119D8A402D0010E01D0D9
:1011F000000E1E6E02013251D8A4120002013051BD
:101200001F0B020AD8A41200020134510F0B00096F
:10121000D8B41200020134510F0B3F6E030E3F6031
:101220001200200E2118D8A412000C8E020134BF27
:101230001BD0020134510F0B3F6E3F50020D6A0E5E
:10124000F324D96E000EF420DA6EDECF43F0DDCF4A
:1012500044F0020134510F0B3F6E3F50010D7B0EE5
:10126000F324D96E000E1AD0020134510F0B3F6ED9
:101270003F50020D0F0EF324D96E000EF420DA6EEB
:10128000DECF43F0DDCF44F0020134510F0B3F6E4F
:101290003F50010D780EF324D96E000EF420DA6E63
:1012A000DF50426E42B002D0439401D04384020129
:1012B00034BF0BD0020134510F0B3F6E3F50020D73
:1012C0006A0EF324D96E000E0AD0020134510F0BBE
:1012D0003F6E3F50020D0F0EF324D96E000EF42026
:1012E000DA6E43C0DEFF44C0DDFF030E0201311998
:1012F000D8A42FD043C0D9FF44C0DAFFDFAE1CD042
:10130000020134BF0BD0020134510F0B3F6E3F502E
:10131000010D7B0EF324D96E000E0AD00201345168
:101320000F0B3F6E3F50010D780EF324D96E000E67
:10133000F420DA6E0001DF8243C0D9FF44C0DAFF37
:10134000000EDB8443C0D9FF44C0DAFF000EDB8E01
:101350001200040E431A43C0D9FF44C0DAFFDFAEC7
:101360001BD043C0D9FF44C0DAFF7F0EDF1643C055
:10137000D9FF44C0DAFF000EDB8C000E386E050E7C
:10138000376E43C039F044C03AF0000E3C6E020E96
:101390003B6EC4EC18F006D043C0D9FF44C0DAFF5E
:1013A000000EDB8C040E431A42B206D043C0D9FFB4
:1013B00044C0DAFFDFAE31D0020134BF0BD00201EE
:1013C00034510F0B3F6E3F50010D7B0EF324D96E4D
:1013D000000E0AD0020134510F0B3F6E3F50010D39
:1013E000780EF324D96E000EF420DA6E0001DF923D
:1013F00043C0D9FF44C0DAFF3B0EDF16000E386E43
:10140000050E376E43C039F044C03AF0000E3C6E12
:10141000020E3B6EC4EC18F006D043C0D9FF44C0A6
:10142000DAFF3B0EDF16020134510F0B3F6E3F50C7
:10143000010D530EF324406E0F0EF420416E40C098
:10144000D9FF41C0DAFFFE0EDF161200010E4CEC90
:101450001BF0E806D8A412D000019851D8A411D0EE
:1014600000019A51D8A40DD0DF0E0001BD6F000E0F
:101470000001BE6F96EC19F0010E01D0000E0001C4
:10148000986F00019A51D8A404D1400E0001C46F96
:10149000010E0001C56F9C0E0001BD6F000E000122
:1014A000BE6FBFEC1BF00001BD510008400F0001F2
:1014B000C66F85EC16F00001DC6F9C0E0001BD6F5D
:1014C000000E0001BE6F400E0001BF6F010E000153
:1014D000C06FDCC0C1F00001C26BF9EC0DF09C0ED6
:1014E0000001C96F000E0001CA6FB7EC17F00001D0
:1014F000C9510001CA11D8B46FD09C0E0001BD6F54
:10150000000E0001BE6F000E0001C06F000EBF6F25
:101510002FEC12F00001DD6F9C0E0001BD6F000E7C
:101520000001BE6F000E0001C06F010EBF6F2FECF7
:1015300012F00001DE6F9C0E0001BD6F000E000175
:10154000BE6F000E0001BF6F000E0001C06F000EE5
:101550000001C26F020EC16F4CEC0BF023D0000EE5
:101560000001916F010E17D0AC0E0001C96F000E83
:101570000001CA6F9C0E0001CB6F000E0001CC6F02
:1015800070EC0CF00001DE510001D8A405D0000E73
:101590000001916F000E906F000E0001936F000E1E
:1015A000926F08D00001DD51010AD8B4D8D7020AE1
:1015B000D8B4DAD79C0E0001BD6F000E0001BE6FDB
:1015C000000E0001BF6F000E0001C06FDEC0C1F051
:1015D0000001C26B4CEC0BF0000192510001931121
:1015E000D8A402D0010E01D0000E00019015000118
:1015F000DA6F000E000191150001DB6F0001DA5176
:101600000001DB11D8B445D000018C5100018D11CF
:10161000D8B42AD0000E00018D6F000E8C6F000E22
:101620000001936F010E926F020E0101806F010E97
:101630000101816FAC0E0001BD6F000E0001BE6F95
:10164000BFEC1BF00001BD510008200F0101826FAB
:10165000800E0001BD6F010E0001BE6F030E000180
:10166000BF6F75EC1BF015D0AC0E0001BD6F000E06
:101670000001BE6FBFEC1BF00001BE510AE1110E6C
:101680000001BD5DD8B005D0000E00018D6F010EC8
:101690008C6FB1EC0EF01200BDC0CFF0BEC0D0F028
:1016A0000001BF510001C011D8B47BD0BFC0C9F048
:1016B000C0C0CAF0CFC0D9FFD0C0DAFFDECFCBF0B8
:1016C000DDCFCCF0000E0001CE6F000ECD6F59D0F3
:1016D000000120EE06F0CF51D926D051DA220001C8
:1016E000CD51DE1805E10001CE51DE18D8B459D035
:1016F000CBC0D9FFCCC0DAFF0001CD510001C92514
:10170000E16E0001CE510001CA21E26EDFCFE7FF9A
:101710000001CB4BCC2B000120EE04F0CF51D92699
:10172000D051DA22DECFC3F0DDCFC4F0000120EECD
:1017300002F0CF51D926D051DA22DECFC5F0DDCF6D
:10174000C6F00001C3510001C5270001C4510001CA
:10175000C6230001C5510001CB5D0001C651000147
:10176000CC59D8A00BD0000120EE02F0CF51D926E1
:10177000D051DA22DECFCBF0DDCFCCF00001CD4B63
:10178000CE2B0001C1510001CD5D0001CE51800A78
:101790000001C36F0001C251800A0001C359D8A0E3
:1017A00097D7000120EE06F0CF51D926D051DA228A
:1017B0000001C151DE5CDE50800A0001C56F0001EE
:1017C000C251800A0001C559D8B00BD0000120EEEB
:1017D00006F0CF51D926D051DA22DECFC1F0DDCFCD
:1017E000C2F0000120EE04F0CF51D926D051DA2208
:1017F000DECFC3F0DDCFC4F0000120EE02F0CF5108
:10180000D926D051DA22DECFC5F0DDCFC6F00001F7
:10181000C3510001C5270001C4510001C623CFC038
:10182000D9FFD0C0DAFFDECFC7F0DDCFC8F00001AE
:10183000C1510001C7270001C2510001C8230001A6
:10184000C5510001C75D0001C6510001C859D8A0AB
:1018500031D0000120EE04F0CF51D926D051DA2248
:10186000DECFC3F0DDCFC4F00001C31FC41FC34BE4
:10187000C42BCFC0D9FFD0C0DAFFDECFC5F0DDCF9B
:10188000C6F00001C3510001C5270001C451000189
:10189000C6230001C1510001C5270001C25100014A
:1018A000C623CFC0D9FFD0C0DAFFC5C0DEFFC6C097
:1018B000DDFF09D0CFC0D9FFD0C0DAFF0001C15190
:1018C000DE26C251DD22000120EE06F0CF51D926DE
:1018D000D051DA220001C151DE5EC251DD5A120040
:1018E000C9C0D8F0CAC0D9F0000120EE06F0D85126
:1018F000D926D951DA22DECFCDF0DDCFCEF0D8C057
:10190000D9FFD9C0DAFFDECFCFF0DDCFD0F00001B4
:10191000CD510001CF250001D66F0001CE5100014D
:10192000D0210001D76F000120EE06F0CB51D9265F
:10193000CC51DA22DECFCDF0DDCFCEF0000120EEAB
:1019400006F0D851D926D951DA22DECFCFF0DDCF3B
:10195000D0F00001CD510001CF270001CE51000190
:10196000D023000120EE04F0D851D926D951DA2233
:101970000001CF51DE5CDE50800A0001D36F000110
:10198000D051800A0001D359D8A01200000E0001E6
:10199000D56F000ED46F48D0000120EE04F0D8516E
:1019A000D926D951DA22DECFCDF0DDCFCEF000013D
:1019B00020EE02F0D851D926D951DA22DECFCFF06D
:1019C000DDCFD0F00001CD510001CF270001CE5175
:1019D0000001D0230001CF510001D65D0001D0519C
:1019E0000001D759D8A00BD0000120EE02F0D85149
:1019F000D926D951DA22DECFD6F0DDCFD7F0CBC051
:101A0000BDF0CCC0BEF0D4C0BFF0D5C0C0F02FEC4C
:101A100012F0D6C0D9FFD7C0DAFFDF6E0001D64B77
:101A2000D72B0001D44BD52B000120EE06F0CB5173
:101A3000D926CC51DA22DE500001D45D0001D55107
:101A4000800A0001CF6FDE50800A0001CF59D8A074
:101A5000A3D7000120EE06F0CB51D926CC51DA22D3
:101A6000DECFCDF0DDCFCEF0000120EE06F0D85174
:101A7000D926D951DA220001CD51DE26CE51DD2200
:101A80001200A094000E0F015F6F000E626E000E38
:101A90000F01536F540E0001BD6F0F0E0001BE6F9A
:101AA000000E0001C06F000EBF6F000E0001C26F7C
:101AB000020EC16FBAEC1AF0160E616E9F0E0F0186
:101AC0005B6F7B0E606E000E0001C56F0B0E000198
:101AD000C56501D010D00001C551040D000EF324DE
:101AE000D96E020EF420DA6EDE6ADE6ADE6ADD6A24
:101AF0000001C52BEBD7648C000E0F015C6F64985E
:101B0000649C6296000E0C6E000E046E000E066E53
:101B1000000E056E62B6F5D7010E226E010E0001B1
:101B2000966F000E0001946F000E0001956F000E7D
:101B30001F6E000E0001C56F020E0001C56501D0C9
:101B400033D00001C551020D0F0EF324D96E000EE3
:101B5000F420DA6E000EDE6E000EDD6E0001C5515F
:101B6000020D6A0EF324D96E000EF420DA6E000E18
:101B7000DE6E000EDD6E0001C551010D780EF324FE
:101B8000D96E000EF420DA6E000EDF6E0001C55132
:101B9000010D7B0EF324D96E000EF420DA6E000ED8
:101BA000DF6E0001C52BC8D7080E0F6E020E106E37
:101BB000160E0F01536F020E0201036F300E026FFB
:101BC000080E0201016F040E0201006F0201008F76
:101BD000000E296E000E0001746F000E756F000E6E
:101BE000766F000E776F000E0001976F000E216E6A
:101BF0001200BDC0CEF0BEC0CFF0BFC0C8F0C0C0A4
:101C0000C9F0000120EE06F0CE51D926CF51DA22DC
:101C1000DECFC3F0DDCFC4F0CEC0D9FFCFC0DAFF36
:101C2000DECFC5F0DDCFC6F00001C3510001C525F0
:101C30000001CC6F0001C4510001C6210001CD6F2D
:101C4000000120EE06F0CE51D926CF51DA22DECFA8
:101C5000C3F0DDCFC4F00001C1510001C327000172
:101C6000C2510001C423000120EE04F0CE51D92658
:101C7000CF51DA220001C351DE5CDE50800A000140
:101C8000C76F0001C451800A0001C759D8A01200D3
:101C9000000E0001CB6F000ECA6F46D0000120EE8F
:101CA00004F0CE51D926CF51DA22DECFC3F0DDCFFA
:101CB000C4F0000120EE02F0CE51D926CF51DA2235
:101CC000DECFC5F0DDCFC6F00001C3510001C5274E
:101CD0000001C4510001C6230001C5510001CC5DC3
:101CE0000001C6510001CD59D8A00BD0000120EE53
:101CF00002F0CE51D926CF51DA22DECFCCF0DDCFA3
:101D0000CDF0C8C0D9FFC9C0DAFFCCC0E1FFCDC05B
:101D1000E2FFDFCFE7FF0001C84BC92B0001CC4B2E
:101D2000CD2B0001CA4BCB2B0001C1510001CA5D74
:101D30000001CB51800A0001C36F0001C251800A2B
:101D40000001C359D8A0AAD7000120EE06F0CE5159
:101D5000D926CF51DA220001C151DE26C251DD223F
:101D60001200A0940001845100018511D8B409D05B
:101D700084C0D9FF85C0DAFF0001DFAE02D0A084A5
:101D80001200030E00019A19D8A403D0000E00011E
:101D90009A6F00019A51D8A402D0A0841200020EBA
:101DA00000019A19D8A417D0010E0001BD6F000ED2
:101DB0000001BE6F000E0001BF6F000E0001C06F7A
:101DC000020E86EC13F0BDC084F0BEC085F0030E99
:101DD00000019A6F6ED000019A05D8A46AD0400E17
:101DE000256404D0400E0001C56F02D025C0C5F0A7
:101DF0000001C55100082524256E400E00017E6FAC
:101E0000020E00017F6FC5C0C4F0000199510001AE
:101E1000D8B413D02AD081C0D9FF82C0DAFF7EC0E7
:101E2000E1FF7FC0E2FFDFCFE7FF00017E4B7F2BAA
:101E30000001814B822B0001C4070001C451000145
:101E4000D8B418D0E8D781C0D9FF82C0DAFF7EC0ED
:101E5000E1FF7FC0E2FFDFCFE7FF00017E4B7F2B7A
:101E60000001814B822B0001C4070001C451000115
:101E7000D8A4E9D72550D8A40AD0400E0001C5192E
:101E8000D8A402D0020E01D0030E00019A6F010EF9
:101E90000001BD6F400E0001BE6F020E0001BF6F5A
:101EA000C5C0C0F0020E86EC13F0BDC084F0BEC009
:101EB00085F0A0841200A094000E0F015F6F000E49
:101EC000626E000E0F01536F540E2B6E0F0E2C6EB0
:101ED000000E2E6E000E2D6E000E306E020E2F6E56
:101EE00036EC1BF0160E616E9F0E0F015B6F7B0EC2
:101EF000606E000E336E0B0E336401D00ED0335083
:101F0000040D000EF324D96E020EF420DA6EDE6AA0
:101F1000DE6ADE6ADD6A332AEED7648C000E0F01BA
:101F20005C6F6498649C6296000E0C6E000E046EEA
:101F3000000E066E000E056E62B6F5D7010E226E1B
:101F4000010E0001966F000E0001946F000E00015B
:101F5000956F000E1F6E000E336E020E336401D0BB
:101F60002ED03350020D0F0EF324D96E000EF42044
:101F7000DA6E000EDE6E000EDD6E3350020D6A0E5C
:101F8000F324D96E000EF420DA6E000EDE6E000E21
:101F9000DD6E3350010D780EF324D96E000EF4205F
:101FA000DA6E000EDF6E3350010D7B0EF324D96E16
:101FB000000EF420DA6E000EDF6E332ACED7080E44
:101FC0000F6E020E106E160E0F01536F020E0201FD
:101FD000036F300E026F080E0201016F040E020142
:101FE000006F0201008F000E296E000E0001746F59
:101FF000000E756F000E766F000E776F000E0001F9
:10200000976F000E216E12002104D8B464BA06D076
:10201000000E626E60806088020E216E62B460A461
:1020200003D06294D4EC1AF064A202D0A1941200FE
:1020300062B060A006D05BEC0FF0A084040E216EAD
:10204000629062B860A802D01FEC1BF062AC1AD09C
:1020500060AC0ED0000E386E730E376E000E396E07
:10206000000E3A6E000E3C6E010E3B6EC4EC18F092
:10207000629C88EC1BF02350D8A423062350D8B4CC
:10208000BDEC14F062BA60AA02D0EBEC19F062B2B7
:1020900060A210D07F0E386E3768000E396E000EC9
:1020A0003A6E000E3C6E010E3B6EC4EC18F0000E52
:1020B0000F015F6F040E216002D0A194120060A690
:1020C00039D0000E466E030E466401D033D062A6AE
:1020D00031D063CF2AF02A30E832E8320F0B276E76
:1020E00062962AB407D02750010D7B0EF324D96ED7
:1020F000000E06D02750010D780EF324D96E000E85
:10210000F420DA6E0001DF702750D8A403D06FEC02
:1021100017F00ED0000E386E720E376E2A0E396E22
:10212000000E3A6E000E3C6E000E3B6EC4EC18F0D2
:10213000462AC9D7A1941200800E02013019D8A4F2
:102140001200C00E0C6E7CD0B40E096E110E0A6E19
:10215000000E0E6E120E0D6E120002013251D8A446
:102160003ED002013251020D070EF324F66E110E1D
:10217000F420F76E0900F5CF09F00A00F5CF0AF058
:10218000020E09242B6E000E0A202C6E2BC0F6FFC7
:102190002CC0F7FFF86A020EF76403D00800F55070
:1021A00005D0F6CFE9FFF7CFEAFFEF500D6E030E33
:1021B00009242B6E000E0A202C6E2BC0F6FF2CC0BB
:1021C000F7FFF86A020EF76403D00800F55005D057
:1021D000F6CFE9FFF7CFEAFFEF500E6E1200000EC8
:1021E0000C6E1200030E0201326124D00201325142
:1021F000020D010EF324F66E110EF420F76E0900A5
:10220000F5CF09F00A00F5CF0AF009C0F6FF0AC0C1
:10221000F7FFF86A020EF76403D00800F55005D006
:10222000F6CFE9FFF7CFEAFFEF502B6E2B500D6E84
:102230000E6A1200000E0C6E1200000E0C6E1200E0
:1022400002013351010AD8B47FD7030AD8B485D725
:10225000010AD8B4C7D7F1D720EE01F01950D9261A
:102260001A50DA22DF502C6E2C50055C000E0658F6
:10227000D8A005C02CF02C50055E000E065A000EAA
:102280002B6E11D02B50010D380EF324D96E020E97
:10229000F420DA6E01C0E1FF02C0E2FFDFCFE7FF0A
:1022A000014A022A2B2A2C502B5CD8A0EBD70550D0
:1022B0000610D8B432D020EE01F01B50D9261C50A5
:1022C000DA22080EDF6E20EE02F01B50D9261C50D9
:1022D000DA22380EDE6E020EDD6E19C0D9FF1AC08A
:1022E000DAFFDFBC0DD01BC0D9FF1CC0DAFF480EDF
:1022F000DF6E1BC0D9FF1CC0DAFF000EDB8E1200A0
:102300001BC0D9FF1CC0DAFF080EDF6E1BC0D9FF4F
:102310001CC0DAFF000EDB8E120020EE01F01B5015
:10232000D9261C50DA22080EDF6E20EE02F01B5078
:10233000D9261C50DA22300EDE6E020EDD6E1BC076
:10234000D9FF1CC0DAFF040EDF6E1BC0D9FF1CC012
:10235000DAFF000EDB8E049E2050D8A41200BDECE4
:1023600014F0120064980CBE3AD004AE0DD0020EE8
:10237000266E00019551D8B4D7EC16F0000E00017E
:10238000966F000E226E120020EE01F01B50D9262F
:102390001C50DA22080EDF6E20EE02F01B50D92608
:1023A0001C50DA22300EDE6E020EDD6E1BC0D9FF2D
:1023B0001CC0DAFF0C0EDF6E1BC0D9FF1CC0DAFF99
:1023C000000EDB8E0FC0D9FF10C0DAFF040EDF6EE7
:1023D0000FC0D9FF10C0DAFF000EDB8E1200020121
:1023E00030AF12D0010E266E00019451D8B4D7EC54
:1023F00016F0000E0001966F000E226E2050D8A439
:102400001200BDEC14F01200020E266E20EE01F058
:102410001B50D9261C50DA22080EDF6E20EE02F087
:102420001B50D9261C50DA22300EDE6E020EDD6EF5
:102430001BC0D9FF1CC0DAFF040EDF6E1BC0D9FF22
:102440001CC0DAFF000EDB8E000E0001966F000E3E
:10245000226E2050D8A41200BDEC14F01200BDC0B2
:10246000C7F0BEC0C8F0000120EE04F0C751D92665
:10247000C851DA22DECFC1F0DDCFC2F0000120EE7C
:1024800002F0C751D926C851DA22DECFC3F0DDCF22
:10249000C4F00001C1510001C3270001C251000175
:1024A000C423C7C0D9FFC8C0DAFFDECFC5F0DDCF77
:1024B000C6F00001BF510001C5270001C051000155
:1024C000C6230001C3510001C55D0001C4510001D4
:1024D000C659D8A02CD0000120EE04F0C751D9264F
:1024E000C851DA22DECFC1F0DDCFC2F00001C11F3A
:1024F000C21FC14BC22BC7C0D9FFC8C0DAFFDECF95
:10250000C3F0DDCFC4F00001C1510001C3270001B9
:10251000C2510001C4230001BF510001C325D96E7F
:102520000001C0510001C421DA6EDF501200C7C0A3
:10253000D9FFC8C0DAFFDECFC1F0DDCFC2F00001A5
:10254000BF510001C125D96E0001C0510001C22157
:10255000DA6EDF5012000C8E540E2B6E0F0E2C6EA6
:10256000000E2E6E000E2D6E000E306E020E2F6EBF
:1025700036EC1BF0000E2B6E020E2C6E000E2E6E33
:10258000000E2D6E000E306E300E2F6E36EC1BF0EE
:10259000648C000E3F6E020E3F6401D016D03F5097
:1025A000010D780EF324D96E000EF420DA6E000EC1
:1025B000DF6E3F50010D7B0EF324D96E000EF42028
:1025C000DA6E000EDF6E3F2AE6D7BB0E2B6E000ED2
:1025D0002C6E000E2E6E000E2D6E000E306E020E52
:1025E0002F6E36EC1BF0649C080E0F6E020E106E00
:1025F000000E196E020E1A6E19C01BF01AC01CF0E4
:1026000032C229F02950D8A403D0100E216E120036
:10261000000E386E010E376E290E396E000E3A6EBE
:10262000000E3C6E010E3B6EC4EC18F0200E216EC5
:10263000120002013039E832030B0009D8A412005D
:1026400043D00C8E080E216E12009CEC10F012008C
:10265000ABEC12F01200290E096E000E0A6E0C800F
:10266000010E0D6E0C8E120030EC16F01200E6EC2E
:1026700008F0120002013451010DBB0EF324096E63
:10268000000EF4200A6E0C80010E0D6E0C8E1200EE
:102690000C8E02013451010DBB0EF324D96E000ED5
:1026A000F420DA6E32C2DFFF1200000E386E020E26
:1026B000376E000E396E000E3A6E000E3C6E000E44
:1026C0003B6EC4EC18F0120002013151000AD8B47C
:1026D000CBD7010AD8B4CBD7020AD8B4C8D7060AD8
:1026E000D8B4AFD7030AD8B4B0D7010AD8B4DDD76D
:1026F0000F0AD8B4B0D7010AD8B4AAD7030AD8B4FD
:10270000B9D7010AD8B4C4D7070A12000001C16FB3
:102710000001BD510001D8B408D00001C151020D23
:102720000F0EF324D96E000E07D00001C151020D27
:102730006A0EF324D96E000EF420DA6EDECFC2F0FA
:10274000DDCFC3F00001C2510001C311D8A407D0EE
:10275000000E0001BD6F000E0001BE6F12000001EF
:1027600020EE02F0C251D926C351DA22BEC0DEFFEC
:10277000BFC0DDFF000120EE01F0C251D926C351D8
:10278000DA22C0C0DFFFC2C0D9FFC3C0DAFF400EEB
:10279000DF16C2C0D9FFC3C0DAFF000EDB86C2C09D
:1027A000D9FFC3C0DAFF000EDB8E0001BD5100016E
:1027B000D8B408D00001C151020D0F0EF324D96E18
:1027C000000E07D00001C151020D6A0EF324D96E2C
:1027D000000EF420DA6E040EDF1AC2C0BDF0C3C0D2
:1027E000BEF01200080E2B6E0E5010E1080E0D5CAC
:1027F000D8B00CD00DC02BF02850D8A402D0010EB8
:1028000004D02804D8A402D0020E286E2B500D5EEE
:10281000000E0E5A20EE01F00F50D9261050DA2289
:102820002BC0DFFF380E00018E6F020E00018F6F8C
:102830000CA01CD03AD009C0F6FF0AC0F7FFF86A16
:102840008EC0D9FF8FC0DAFF020EF76403D00800F4
:10285000F55005D0F6CFE9FFF7CFEAFFEF50DF6E76
:10286000094A0A2A00018E4B8F2B2B062B50D8B415
:102870001200E1D709C0F6FF0AC0F7FFF86A8EC060
:10288000D9FF8FC0DAFF020EF76403D00800F550BD
:1028900005D0F6CFE9FFF7CFEAFFEF50DF6E094A28
:1028A0000A2A00018E4B8F2B2B062B50D8B4120016
:1028B000E1D7000E926E000E936E000E946E000E25
:1028C000806E000E816E000E826ED59CD550F80B86
:1028D0000109D56ED59AD596D58EFE0ED76EFE0E11
:1028E000D66EF184F28AF294F28EF28CCD92300E92
:1028F000CD12CD8ECD809E90BD50F00B0C09BD6EDB
:10290000300EBD123F0EBD16B980B982B984B986AA
:10291000B988000EBE6E3F0ECB6E000ECC6EFC0E64
:10292000CA16CA96CA98CA9ACA9CCA84AC0E000132
:10293000BD6F000E0001BE6FC00E0001BF6F010E23
:102940000001C06F000E0001C26F200EC16F3AEC93
:1029500019F09C0E0001BD6F000E0001BE6F000E4D
:102960000001BF6F010E0001C06F000E0001C26FB9
:10297000400EC16F3AEC19F012002250D8A4120098
:10298000010E226E00019651D8A41200010E000122
:10299000966F020E2618D8A415D020EE01F00F5025
:1029A000D9261050DA22000EDF6E0FC0D9FF10C0FA
:1029B000DAFF480EDF6E0FC0D9FF10C0DAFF000E3D
:1029C000DB8E12002604D8A41200000E1D6E20EE2D
:1029D00001F01950D9261A50DA22080EDF6E20EEC7
:1029E00002F01950D9261A50DA22300EDE6E020E8D
:1029F000DD6E19C0D9FF1AC0DAFF040EDF6E19C0F0
:102A0000D9FF1AC0DAFF000EDB8E010E1D6E20EE1C
:102A100001F01B50D9261C50DA22080EDF6E20EE82
:102A200002F01B50D9261C50DA22300EDE6E020E48
:102A3000DD6E1BC0D9FF1CC0DAFF800EDF6E1200F6
:102A40002F6E2B50D8B407D02F50020D0F0EF32449
:102A5000D96E000E06D02F50020D6A0EF324D96EE7
:102A6000000EF420DA6EDECF30F0DDCF31F03050E2
:102A70003110D8A405D0000E2B6E000E2C6E120063
:102A800020EE02F03050D9263150DA222CC0DEFF81
:102A90002DC0DDFF20EE01F03050D9263150DA2272
:102AA0002EC0DFFF30C0D9FF31C0DAFF400EDF1685
:102AB00030C0D9FF31C0DAFF000EDB8630C0D9FF4D
:102AC00031C0DAFF000EDB8E2B50D8B407D02F5068
:102AD000020D0F0EF324D96E000E06D02F50020DFA
:102AE0006A0EF324D96E000EF420DA6E040EDF1A9B
:102AF00030C02BF031C02CF012000FC0D9FF10C035
:102B0000DAFF000EDFBC010E2C6E040E0F1A080E49
:102B10002118D8A40DD0020132517F0B0F015C6F38
:102B20000F015C51D8B402D0100E01D0040E216EFA
:102B30002604D8A43AD020EE02F00F50D926105027
:102B4000DA22380EDE6E020EDD6EF2EC13F0020EAB
:102B50002818D8A40DD00FC0D9FF10C0DAFF040E7A
:102B6000DF6E0FC0D9FF10C0DAFF000EDB8E12003F
:102B70002C50D8A40DD00FC0D9FF10C0DAFF480EDA
:102B8000DF6E0FC0D9FF10C0DAFF000EDB8E12001F
:102B90000FC0D9FF10C0DAFF080EDF6E0FC0D9FFDB
:102BA00010C0DAFF000EDB8E120004BE049E000E81
:102BB000266E1200020130511F0BE806D8A4120045
:102BC00002013039E832030BE806D8A412000201F2
:102BD0003451D8B433D002013405D8A412002ED019
:102BE000A40E096E000E0A6E000E0E6E080E0D6E1B
:102BF0000C800C8E1200A40E096E000E0A6E0C8E54
:102C0000120036C205F037C206F0B40E016E000E97
:102C1000026E000E076E000E086E048E1200B40ED7
:102C2000096E000E0A6E000E0E6E070E0D6EC10EBE
:102C30000C6E120032C29BF00C8E12000201315158
:102C4000000AD8B4CDD7010AD8B4D5D7210AD8B450
:102C5000D8D7010AD8B4E3D7030AD8A41200EAD718
:102C6000000E0201386F000E0201396F38D00C8E51
:102C70001E04D8A440D0020138833DD00C8E3BD036
:102C80000C8E020134BF0BD0020134510F0B2B6E9E
:102C90002B50020D6A0EF324D96E000E0AD00201E9
:102CA00034510F0B2B6E2B50020D0F0EF324D96EE7
:102CB000000EF420DA6EDECF2CF0DDCF2DF02CC02C
:102CC000D9FF2DC0DAFFDFAE16D02CC0D9FF2DC042
:102CD000DAFFDFA410D0010E0201386F0CD0020120
:102CE00030511F0B000AD8B4C2D7010AD8B4C6D7D6
:102CF000030AD8B4C5D70CAE1200380E096E020E06
:102D00000A6E0C80020E0D6E1200000E246E17501B
:102D10001810D8B406D017C0D9FF18C0DAFFDFBE2C
:102D200044D020EE01F01750D9261850DA220001C5
:102D3000C651DE5CD8B009D020EE01F01750D9267C
:102D40001850DA22DF500001C66F000E246E15D035
:102D50002450010D800EF324D96E020EF420DA6E99
:102D60002450010DF3500001C425E16EF450000120
:102D7000C521E26EDFCFE7FF242A0001C651245CA3
:102D8000D8A0E6D7000E0001BD6F800E0001BE6F17
:102D9000020E0001BF6F400E0001C06F020E86ECF4
:102DA00013F0BDC017F0BEC018F024501200000E82
:102DB0000001946F000E0001956F020E2618D8A432
:102DC0001FD020EE01F01B50D9261C50DA22080E2D
:102DD000DF6E20EE02F01B50D9261C50DA22380E8E
:102DE000DE6E020EDD6E1BC0D9FF1CC0DAFF480E7E
:102DF000DF6E1BC0D9FF1CC0DAFF000EDB8E120095
:102E00000D500201365D0E5002013759D8B004D082
:102E100036C20DF037C20EF0F2EC13F020EE02F0E5
:102E20000F50D9261050DA22380EDE6E020EDD6EFB
:102E30000FC0D9FF10C0DAFF480EDF6E0FC0D9FFF8
:102E400010C0DAFF000EDB8E1200306E000E316E05
:102E5000020E326E2B502C6E2D6AD8902C362D36E9
:102E600030502E6E2F6AD8902E362F36D8902E36B0
:102E70002F362C502E262D502F22D8902E362F361E
:102E8000D8902E362F362E5031262F50322231C078
:102E9000D9FF32C0DAFFDF9E2B50D8A407D03050C4
:102EA000020D6A0EF324D96E000E06D03050020DCA
:102EB0000F0EF324D96E000EF420DA6E31C0DEFF5F
:102EC00032C0DDFF31C0D9FF32C0DAFFDF9C20EE17
:102ED00004F03150D9263250DA22DF8C12002D0E48
:102EE000236E2AC045F0FD0E4516D8A438D02AC05E
:102EF00045F0D89045323F0E45164550040D000E62
:102F0000F324196E020EF4201A6E19C01BF01AC0B9
:102F10001CF0040E1B1A19C0D9FF1AC0DAFFDF30EB
:102F2000E8320F0B0D0AD8A417D0300E2B6E020E0C
:102F30002C6E20EE02F01950D9261A50DA22DECF7C
:102F40002DF0DDCF2EF0000E306E080E2F6E0EEC41
:102F50001AF041EC18F0120068EC19F012002A5037
:102F6000FD0B040AD8A412007DEC15F01200C9C0B4
:102F7000BDF0CAC0BEF0BFEC1BF0BDC0CEF0BEC0FD
:102F8000CFF00001CFBF08D00001CF510BE1020EFE
:102F90000001CE5DD8B006D0000E0001CA6F000E51
:102FA000C96F1200C9C0BDF0CAC0BEF0000E00015A
:102FB000C06F010EBF6F2FEC12F00001CB6FCC6B16
:102FC000020E0001CB27000ECC230001CB510001E3
:102FD000CE5D0001CF51800A0001CD6F0001CC51C0
:102FE000800A0001CD59D8A002D0010E01D0000EF8
:102FF0000001C96FCA6B1200F2A4120000018A4BD3
:103000008B2BFE0ED76EFE0ED66EF294000E0001D4
:10301000896F010E886F00018B5105E10A0E0001D6
:103020008A5DD8A01200000E00018B6F000E8A6F1F
:1030300081BE03D02B6A2B2A01D02B6A2B322B3274
:1030400081502B187F0B2B18816E000186510001D7
:103050008711D8A402D0010E01D0000E0001866FA6
:10306000876B0001865100018711D8B405D03F0E4F
:10307000BE6E300EBD121200000EBE6ECF0EBD161B
:103080001200000E286E000E206E000E0001946FDC
:10309000000E0001956F000E1D6E000E266E0FC013
:1030A000D9FF10C0DAFF7F0EDF16040E0F1A0FC013
:1030B000D9FF10C0DAFF7F0EDF16040E0F1A1BC0F7
:1030C000D9FF1CC0DAFF7F0EDF16000E0C6E000E5B
:1030D0000E6E000E0D6E000E046E000E066E000EDB
:1030E000056E19EC13F0000E386E030E376E000EED
:1030F000396E000E3A6E000E3C6E000E3B6EC4EC54
:1031000018F0B2EC11F0120064A236D0010E9FEC60
:103110001AF0120015041610D8A404D0010E84EC85
:103120001AF02FD04B0E15181610D8A404D0010E8B
:103130009FEC1AF026D0165004E1970E155CD8A02B
:1031400020D0000E166E000E156E1BD01504161042
:10315000D8A404D0010E84EC1AF013D0320E151846
:103160001610D8A404D0010E9FEC1AF00AD0B70EA6
:10317000155C030E1658E3D72150200AD8B4CAD7DD
:10318000E5D7154A162A120015D084EC18F0120063
:1031900084EC18F0010EADEC1BF0120084EC18F07A
:1031A000020EADEC1BF0120007EC1BF01200DAEC83
:1031B00015F0120037C03DF038C03EF03E50000A16
:1031C000D8B404D07F0AD8A412001AD03D50010A06
:1031D000D8B4EAD7030AD8B41200010AD8B4E7D7A2
:1031E000060AD8B41200770AD8B41200010AD8B47B
:1031F000CCD7070AD8B4D2D7010AD8A41200C8D7AE
:103200003D50FF0A1200000E0001B46F4B0EB56F67
:10321000000EB66F000EB76F000E0001B86F000E03
:103220000001B96F080E0001BA6F000E246E1A0E6D
:10323000336E010E2EEC1AF01E0E336E020E2EECC3
:103240001AF0000E2B6E800E2C6E020E2D6E400EAC
:103250002E6E020E20EC15F02BC017F02CC018F0CB
:10326000000E0001846F000E0001856F000E00014A
:103270009A6F1200BDC0C3F0BEC0C4F0000120EEC2
:1032800002F0C351D926C451DA22BFC0DEFFC0C04C
:10329000DDFF000120EE04F0C351D926C451DA222B
:1032A000C1C0DEFFC2C0DDFFC3C0D9FFC4C0DAFFAA
:1032B000BFC0DEFFC0C0DDFF000120EE06F0C3513D
:1032C000D926C451DA22000EDE6E000EDD6E120029
:1032D000020E2618D8A403D02CEC11F01200000E18
:1032E000266E1D50D8A41FD020EE01F01B50D92609
:1032F0001C50DA22080EDF6E20EE02F01B50D92699
:103300001C50DA22300EDE6E020EDD6E1BC0D9FFBD
:103310001CC0DAFF0C0EDF6E1BC0D9FF1CC0DAFF29
:10332000000EDB8E1200000E1D6E1200A094000134
:103330009A51D8B402D0A0841200000E0001C16FCF
:10334000BDC0BFF0BEC0C0F00001C12B0001C1294B
:10335000D8B40AD0BFC0D9FFC0C0DAFF0001BF4B4C
:10336000C02BDF50D8A4F0D7BDC081F0BEC082F022
:10337000C1C025F0000E0001996F010E00019A6F87
:10338000A084120001EE00F0E00EEE6AE806FDE116
:1033900000EE60F05D0EEE6AE806FDE100EE01F081
:1033A0002A0EEE6AE806FDE1960EF66E370EF76E0F
:1033B000000EF86E00EEDFF010EE12F00900F5CF0F
:1033C000EEFFE550E150FAE155905592000EF86E8F
:1033D00000019BEF1BF00F0153A11ED019C0D9FFB4
:1033E0001AC0DAFF800EDE18D8A414D00FC0D9FF9F
:1033F00010C0DAFF840EDE18D8A40CD019C0D9FF93
:103400001AC0DAFF0C0EDF6E19C0D9FF1AC0DAFF3E
:10341000000EDB8E0F015391629A12002DC033F023
:103420002EC034F02BC031F02CC032F00ED033C09F
:10343000D9FF34C0DAFF31C0E1FF32C0E2FFDFCF95
:10344000E7FF334A342A314A322A2F06D8A0300601
:103450002F28EDE13028D8B41200E9D7366E33A416
:1034600005D0000E2B6E365025EC17F033A205D098
:10347000010E2B6E365025EC17F03650010D530E11
:10348000F324346E0F0EF420356E34C0D9FF35C0EE
:10349000DAFF33C0DFFF12000001BD6F08D0949047
:1034A000120094921200949412009496120000015B
:1034B000BD51000AD8B41200010AD8B4F0D7030AEB
:1034C000D8B4EFD7010AD8B4EED7070AD8A41200AF
:1034D000ECD72B6E08D09490120094921200949422
:1034E0001200949612002B50000AD8B41200010A60
:1034F000D8B4F1D7030AD8B4F0D7010AD8B4EFD7BB
:10350000070AD8A41200EDD72B6E08D08B801200CA
:103510008B8212008B8412008B8612002B50000AC3
:10352000D8B41200010AD8B4F1D7030AD8B4F0D73E
:10353000010AD8B4EFD7070AD8A41200EDD72B6E32
:1035400008D08B9012008B9212008B9412008B96F5
:1035500012002B50000AD8B41200010AD8B4F1D7D7
:10356000030AD8B4F0D7010AD8B4EFD7070AD8A411
:103570001200EDD7BDC0C3F0BEC0C4F009D0C3C0B7
:10358000D9FFC4C0DAFFBFC0DFFF0001C34BC42BAB
:103590000001C107D8A0C2070001C129F0E1000164
:1035A000C229D8B41200EBD7000E1F6E000E386E81
:1035B000740E376E000E396E000E3A6E000E3C6EC1
:1035C000000E3B6EC4EC18F06492609401D06294DB
:1035D00062B4FDD7000E0001976F12002150D8A4ED
:1035E0001200000E646E000E606E160E616E9F0E6D
:1035F0000F015B6F7B0E606ED08EA284A084F28E72
:1036000001D0648664A6FDD7010E216E120003EC82
:1036100019F0000E0001B86F080E0001BA6F000E1D
:103620000001B96F800E0001B46F250EB56F000E5A
:10363000B66F000EB76F000E0001986F1200608425
:1036400062986482010E1F6E000E0001976F000EDB
:10365000386E750E376E000E396E000E3A6E000E23
:103660003C6E000E3B6EC4EC18F012002BC031F023
:103670002CC032F008D031C0D9FF32C0DAFF2DC0E3
:10368000DFFF314A322A2F06D8A030062F28F3E177
:103690003028D8B41200EFD70001BD6F08D080B633
:1036A00002D0010E1200000E1200000E12000001E6
:1036B000BD51000AD8B4F9D7010AD8B4F0D7000E2A
:1036C00012000001BE6F07D0010E4CEC1AF0010E83
:1036D000D4EC1BF012000001BE51000AD8B4F4D79C
:1036E000010AD8B41200030A1200A09400019A51F2
:1036F000D8A40CD0BDC081F0BEC082F0BFC025F000
:10370000010E0001996F010E00019A6FA084120052
:10371000010E00017427000E7523762377231F50B6
:10372000D8A412000001972B00019751D8A41200D1
:10373000000197691200000E61EC1BF041EC0DF0E6
:10374000EEEC1AF059EC14F0200E216001D0FCD7F9
:1037500064B2FAD726EC0AF0F7D72C6E07D0010E28
:1037600069EC1AF0010EDDEC1BF012002C50000A7F
:10377000D8B4F5D7010AD8B41200030A1200000128
:1037800020EE06F0BD51D926BE51DA22DECFBDF0C3
:10379000DDCFBEF01200427574746F6E20707265DA
:1037A000737365642E0D0A000001BD6F0001BD51E9
:1037B000000AD8B41200010A12002B6E2B50000A26
:0837C000D8B41200010A120046
:020000040020DA
:08000000FFFFFFFFFFFFFFFF00
:020000040030CA
:0E0000000032011EFF0081FF03C003E0034039
:00000001FF
